:020000040800F2
:10000000284E002099240008F7010008F901000893
:10001000FD010008010200080502000800000000C0
:100020000000000000000000000000004501000882
:10003000090200080000000089010008772200087A
:10004000B3240008B3240008B3240008B324000834
:10005000B3240008B3240008B3240008B324000824
:10006000B3240008B3240008B3240008B324000814
:10007000B3240008B3240008B3240008B324000804
:10008000B3240008B3240008B3240008B3240008F4
:10009000B3240008B3240008B3240008B3240008E4
:1000A000B3240008B3240008B3240008B3240008D4
:1000B000B3240008B3240008B3240008B3240008C4
:1000C000B3240008B3240008B3240008B3240008B4
:1000D000B3240008B3240008B3240008B3240008A4
:1000E000B3240008B3240008B3240008B324000894
:1000F000B3240008B3240008B3240008B324000884
:10010000B3240008B3240008B3240008B324000873
:10011000B3240008B3240008B3240008B324000863
:10012000B3240008B3240008B3240008B324000853
:10013000DFF80CD003F0C2F800480047DB010008EC
:10014000284E0020224B19680868B0E8F00F80F3B1
:100150000988BFF36F8F4FF0000080F311884EF0D5
:100160000D0E70470000000006480068006880F32C
:10017000088862B661B6BFF34F8FBFF36F8F00DFA1
:1001800000BF00BF08ED00E0EFF30980BFF36F8F01
:100190000F4B1A6820E9F00F106008B54FF0BF0050
:1001A00080F31188BFF34F8FBFF36F8F01F04CF8CE
:1001B0004FF0000080F31188BDE808401968086816
:1001C000B0E8F00F80F30988BFF36F8F704700BF6E
:1001D00014000020EFF30580704710B502F027FAF5
:1001E000002010BD70B504460D46E1B2002002F0BB
:1001F000EAFC204670BD704700BFFEE700BFFEE787
:1002000000BFFEE700BFFEE77047000010B50446E0
:10021000CC48844208D10121042000F02DFB0021AC
:10022000042000F029FB46E0C748844208D10121A0
:10023000082000F021FB0021082000F01DFB3AE01F
:10024000C248844208D10121102000F015FB002192
:10025000102000F011FB2EE0BD48844208D101219E
:10026000202000F009FB0021202000F005FB22E007
:10027000B848844208D10121402000F0FDFA002155
:10028000402000F0F9FA16E0B348844208D1012179
:10029000802000F0F1FA0021802000F0EDFA0AE061
:1002A000AE48844207D10121801500F0E5FA002113
:1002B000A01500F0E1FA10BD10B50121084600F0CC
:1002C000DBFA0021012000F0D7FA10BD2DE9F04142
:1002D000024600250026002000230024002791F874
:1002E00003C00CF00F0591F803C00CF0100CBCF12A
:1002F000000F03D091F802C04CEA050591F800C048
:10030000BCF1000F31D0146800202BE04FF0010C3D
:100310000CFA00F3B1F800C00CEA03069E4220D1AB
:1003200083004FF00F0C0CFA03F7BC4305FA03FCF3
:100330004CEA040491F803C0BCF1280F06D14FF039
:10034000010C0CFA00FCC2F814C00AE091F803C0DA
:10035000BCF1480F05D14FF0010C0CFA00FCC2F8BB
:1003600010C0401C0828D1D31460B1F800C0BCF103
:10037000FF0F34DD546800202EE000F1080C4FF030
:10038000010808FA0CF3B1F800C00CEA03069E421B
:1003900021D183004FF00F0C0CFA03F7BC4305FA90
:1003A00003FC4CEA040491F803C0BCF1280F05D10A
:1003B00000F1080C08FA0CF8C2F8148091F803C098
:1003C000BCF1480F07D100F1080C4FF0010808FA02
:1003D0000CF8C2F81080401C0828CED35460BDE849
:1003E000F0814FF6FF710180022181700421C170FC
:1003F00070470246002093680B400BB1012000E0DB
:10040000002070470146886880B27047024600208D
:10041000D3680B400BB1012000E00020704701467B
:10042000C86880B2704701617047416170470AB186
:10043000016100E041617047C16070474FF4803254
:100440000A438261816182618269826970470246E2
:100450000020434B18684FF68073184040EA0210A2
:1004600008433F4B186070473E49C8617047F0B57C
:100470000A46002300240021002500F00046B6F1C2
:10048000004F02D1364EF16901E0354E7168C0F37C
:10049000034583B200F44016B6F5401F08D121F0A1
:1004A00070612F4E766826F070662D4F7E6012E0E8
:1004B00000F48016B6F5801F06D1032606FA05F46F
:1004C000A14341F0706106E0460D360103FA06F6DD
:1004D000B14341F0706122B1460D360103FA06F6D0
:1004E000314300F00046B6F1004F02D11C4EF161DD
:1004F00001E01B4E7160F0BD30B500228B071C0F70
:100500000F2303FA04F2164B08338C1053F82430EF
:100510009343134C08348D1044F8253023468C1037
:1005200053F824308C07240F00FA04F423430C4CB6
:1005300008348D1044F8253030BD0A49DC3108609C
:100540007047000000080140000C0140001001400D
:100550000014014000180140001C0140002001402F
:100560000000014000002042DF48006840F0010028
:10057000DD49086008464068DC490840DA494860BF
:1005800008460068DA490840D7490860084600680C
:1005900020F4802008600846406820F4FE0048608F
:1005A0004FF41F0088607047CF49096821F48031FB
:1005B000CD4A11601146096821F480211160B0F51F
:1005C000803F03D0B0F5802F0ED106E0C649096800
:1005D00041F48031C44A116007E0C349096841F41D
:1005E000A021C14A116000E000BF00BF704710B5F4
:1005F00001460022002300204A11012A02D1BA4CF0
:10060000236806E0022A02D1B74C236A01E0B64C07
:10061000636A01F01F02012494401C400CB10120C8
:1006200000E0002010BD38B5002000900024002517
:1006300000BF3120FFF7DBFF05460098401C00900B
:100640000098B0F5A06F01D0002DF2D03120FFF757
:10065000CEFF08B1012400E00024204638BD014649
:100660000020A14A106820F0F80040EAC1001060A4
:100670007047A04908607047024600209A4B5868AE
:1006800020F47C1042EA01031843974B58607047EE
:1006900098490866704701460020934A506820F048
:1006A00003000843506070478F48406800F00C001A
:1006B0007047014600208C4A506820F0F000084343
:1006C0005060704701460020874A506820F4E0607F
:1006D00008435060704701460020834A506820F468
:1006E000605040EAC1005060704729B17E4A527A9A
:1006F00002437D4B5A7204E07B4A527A82437A4B22
:100700005A7270477B49D831086070470146002013
:10071000754A506820F440400843506070470021FB
:10072000714A20321170704A82F82010012802D0DC
:1007300004280AD104E001216B4A2032117005E03F
:100740000521694A2032117000E000BF00BF7047E8
:100750006949086070476449096A0143624A116245
:100760007047654944390860704730B50021002260
:10077000002400235C4D6D6805F00C0121B10429B3
:1007800005D0082923D105E05C4D056022E05B4DD2
:1007900005601FE0544D6D6805F47012524D6D6890
:1007A00005F48034022505EB92421CB9544D5543A3
:1007B00005600BE04C4D6D6805F400351DB1504DE2
:1007C0005543056002E04D4D5543056002E04B4D39
:1007D000056000BF00BF444D6D6805F0F0010909D8
:1007E000484D6B5C0568DD4045603F4D6D6805F424
:1007F000E061090A434D6B5C4568DD4085603A4D18
:100800006D6805F46051C90A3E4D6B5C4568DD407A
:10081000C560354D6D6805F44041890B3A4D6B5C00
:10082000C568B5FBF3F5056130BD29B12E4A5269A3
:1008300002432D4B5A6104E02B4A526982432A4BF2
:100840005A61704729B1284A92690243264B9A613E
:1008500004E0254A92698243234B9A61704729B18B
:10086000214AD2690243204BDA6104E01E4AD26970
:1008700082431D4BDA61704729B11B4AD26802439B
:10088000194BDA6004E0184AD2688243164BDA60EA
:10089000704729B1144A12690243134B1A6104E0EC
:1008A000114A12698243104B1A617047124940394C
:1008B000086070470F49C86470470B49C87170479A
:1008C0000948406A40F08070074948627047014615
:1008D0000020054A92680A400AB1012000E0002089
:1008E0007047014988727047001002400000FFF80D
:1008F000FFFFF6FE000042428004424200127A00EE
:1009000000093D00000000201000002000F1080157
:1009100041604FF0FF31816000F10801C160016169
:1009200000210160704700210161704742684A6000
:1009300093688B60936859609160086103685B1CE1
:100940000360704710B502460B685C1C0CB9106957
:1009500007E002F1080000E04068446824689C4217
:10096000FAD944684C604C68A160886041600A61B3
:100970001468641C146010BD01460A69D1E9013095
:100980009860D1E9010358605068884201D18868B5
:100990005060002008611068401E106010687047A9
:1009A00010B5002407E004EB8401FE4A02EB81004D
:1009B000FFF7ACFF641C052CF5D3FB48FFF7A6FF3F
:1009C000FA48FFF7A3FFFA48FFF7A0FFF948FFF73F
:1009D0009DFFF948FFF79AFFF348F8490860F3488C
:1009E000F749086010BD10B5044601F027FCF54832
:1009F0000068401CF3490860F348006840B9F248B9
:100A000004600846006801280DD1FFF7C9FF0AE01D
:100A1000EE48006838B9EC480068C06AE16A88426C
:100A200001D8E9480460EA480068401CE8490860C9
:100A300094F82C1001208840E64909680843E549EC
:100A40000860E16A01EB8101D64A02EB8101486846
:100A5000A0608268E260211D826851608160E16A65
:100A600001EB8101CF4A02EB81026261E16A01EB95
:100A70008101CC4A52F82110491CE26A02EB820241
:100A8000C84B43F8221001F0E8FBD048006868B179
:100A9000CD480068C06AE16A884207D24FF08050B2
:100AA000CD490860BFF34F8FBFF36F8F10BD2DE9A5
:100AB000FF5F80460E469146DDE90E7A109CA9F153
:100AC0000100216B01EB800B2BF0070B7EB10025A1
:100AD00007E0715D04F134004155705D00B902E03A
:100AE0006D1C102DF5D300BF002143200155052FAB
:100AF00000D30427E762201DFFF715FF04F118005B
:100B0000FFF711FF2461C7F10500A061646241464F
:100B10005846039A01F063FB2060BAF1000F01D040
:100B2000CAF80040BDE8FF9F2DE9FF4F85B0804621
:100B300089461746DDE912ABB80001F056FA0646C1
:100B400076B14C2001F051FA04462CB14C212046DC
:100B500002F099FB266304E0304601F0AEFA00E0B3
:100B600000247CB10020CDE900ABCDE902403A463B
:100B700049464046089BFFF79AFF2046FFF733FFA0
:100B8000012501E04FF0FF35284609B0BDE8F08FA0
:100B900010B50446206B01F090FA204601F08DFA62
:100BA00010BD86480068006808B9012000E00020F8
:100BB00020B14FF0FF308949086005E07F480068A8
:100BC000C068006885490860704770B5054601F047
:100BD00035FB15B97C48006800E028460446201D16
:100BE000FFF7CAFE78B9E06A00EB80006D4951F862
:100BF000200040B994F82C100120884075490968FC
:100C0000814374480160A06A18B104F11800FFF72D
:100C1000B3FE6F480068401C6D4908606A48006870
:100C2000844209D1211D6348FFF780FE6C480068AB
:100C3000401C6B49086006E062480068401E61493C
:100C40000860FFF7AEFF01F008FB5F4800688442D0
:100C500002D02046FFF79CFF5C48006858B15A4814
:100C60000068844207D14FF080505B490860BFF3B1
:100C70004F8FBFF36F8F70BD2DE9F04100275948AA
:100C8000006800287ED158480068451C5648056019
:100C90008DB94A48D0F80080494800684749086043
:100CA0004748C0F8008051480068401C4F49086020
:100CB000FFF777FF00BF49480068854270D300BF47
:100CC0003E480068006808B9012000E0002020B11B
:100CD0004FF0FF304149086090E038480068C06834
:100CE000C4686668B54202D23C48066086E0606926
:100CF000D4E902128A60D4E902214A60211D4268C7
:100D00008A4201D1E1684160002262610168491EA6
:100D10000160A06A98B1A06AD4E907128A60D4E998
:100D200007214A6004F1180142688A4201D1216A10
:100D300041600022A2620168491E016000BF94F870
:100D40002C10012088402349096808432149086084
:100D5000E16A01EB8101134A02EB81014868A0605E
:100D60008268E260211D826851608160E16A01EB66
:100D700081010C4A02EB81026261E16A01EB8101AF
:100D8000084A00E04BE052F82110491CE26A02EBED
:100D90008202044B43F822100B49E06A096827E0FD
:100DA0002DE00000A4000020080100201C0100200C
:100DB00030010020440100205801002018000020CC
:100DC0001C0000202400002014000020300000201F
:100DD000400000202C00002004ED00E04400002032
:100DE0002000002050000020280000203C000020AF
:100DF000C96A88427FF664AF012761E700BFFD48FA
:100E00000068C06A00EB8000FB4951F8200001280F
:100E100000D90127F948006800B1012704E0F8482B
:100E20000068401CF64908603846BDE8F08170B59E
:100E30000024002601F002FAF2480068401EF14941
:100E400008600846006800287ED1EF480068002846
:100E50007AD05BE0ED48C068C468A06AD4E90712A4
:100E60008A60D4E907214A6004F1180142688A4285
:100E700001D1216A41600022A2620168491E01601D
:100E80006069D4E902128A60D4E902214A60211D16
:100E900042688A4201D1E1684160002262610168D2
:100EA000491E016094F82C1001208840D849096837
:100EB0000843D7490860E16A01EB8101CE4A02EBA1
:100EC00081014868A0608268E260211D82685160EB
:100ED0008160E16A01EB8101C74A02EB8102626134
:100EE000E16A01EB8101C44A52F82110491CE26A0F
:100EF00002EB8202C04B43F82210BE49E06A096847
:100F0000C96A884202D30120BC490860BF48006812
:100F100008B9012000E0002000289BD00CB1FFF7A9
:100F200040FEB748056865B100BFFFF7A5FE10B1E8
:100F30000120B24908606D1E002DF6D10020B04995
:100F40000860AE48006800E008E038B101263007CC
:100F5000B0490860BFF34F8FBFF36F8F01F07DF989
:100F6000304670BD2DE9F04105460E46AA48076897
:100F7000A0480068001DFFF7FFFC50B99D480068BD
:100F800090F82C1001208840A14909688143A048AD
:100F90000160681CD8B9D6B1A0494868954909686C
:100FA0008860944982680968CA6092490968091D85
:100FB000826851608F490968091D8160974A8D498F
:100FC00009684A6111460968491C11601AE07C19D8
:100FD000884800684460BC4207D286480168091D01
:100FE0008F480068FFF7AEFC0CE082480168091DDD
:100FF0008C480068FFF7A6FC8B480068844201D249
:1010000089480460BDE8F0817E480068401C7D4945
:10101000086070472DE9F047044688464FF0000904
:10102000FFF7F2FF7C480668206800EB080520689F
:10103000B04207D92068A8420BD9B54209D94FF070
:10104000010906E02068A84201D8B54201D94FF055
:1010500001092560B9F1000F03D0A81B0021FFF79B
:1010600081FFFFF7E4FE07463FB94FF08050694922
:101070000860BFF34F8FBFF36F8F4846BDE8F0871E
:1010800070B50446002544B1FFF7BEFF002120469D
:10109000FFF768FFFFF7CBFE05463DB94FF08050E4
:1010A0005C490860BFF34F8FBFF36F8F70BD70B5A1
:1010B000044601F0C3F814B94E48006800E0204629
:1010C0000646F56A01F0C9F8284670BD70B50246BB
:1010D00000BFBF25EFF3118485F31188BFF34F8F55
:1010E000BFF36F8F00BF214612B9424C246800E065
:1010F00014462346D86A00BF81F3118800BF70BD33
:101100002DE9F04780460D464FF00009052D00D32C
:10111000042501F093F8B8F1000F02D135480068BA
:1011200000E040460446E66AAE427FD0B5420BD9A5
:101130003048006884420DD02E480068C06AA8423A
:1011400008D84FF0010905E02A480068844201D11F
:101150004FF00109E76AE562A06900F0004010B9AC
:10116000C5F10500A06107EB8701234A02EB81016D
:101170006069884201D1012000E00020B0B3201D49
:10118000FFF7FAFB30B90120B840214909688143D3
:101190001F48016094F82C10012088401C49096800
:1011A00008431B490860E16A01EB8101124A02EB26
:1011B00081014868A0608268E260211D82685160F8
:1011C0008160E16A01EB81010B4A02EB81026261FD
:1011D000E16A01EB8101084A52F82110491CE26AD8
:1011E00002EB8202044B43F8221000BFB9F1000F5A
:1011F00025D01CE014000020A400002038000020AE
:101200003400002050000020240000203001002085
:101210002C00002004ED00E02800002058010020F0
:101220001C000020180000204400002008E04FF0BF
:101230008050F8490860BFF34F8FBFF36F8F00BF36
:1012400001F00BF8BDE8F087F348006818B1012001
:10125000F24908601DE00020F0490860F04800688D
:10126000B0FA80F0C0F11F0101EB8102ED4B03EBFE
:10127000820042685268426000F10802436893426B
:1012800002D14268526842604268D268E64B1A60F6
:1012900000BF704770B5054600F0D0FF15B9E248B1
:1012A000006800E028460446201DFFF765FB78B97A
:1012B000E06A00EB8000DB4951F8200040B994F867
:1012C0002C1001208840D64909688143D448016028
:1012D000A06A18B104F11800FFF74EFB211DD34896
:1012E000FFF724FB002009E004F14801095C012913
:1012F00003D1002204F148010A54401C0128F3DB09
:1013000000F0ABFFCA48006828B100F097FFFFF774
:1013100048FC00F0A2FFC4480068844217D1C448CA
:10132000006840B14FF08050BA490860BFF34F8F5A
:10133000BFF36F8F0BE0BD480068BE490968884263
:1013400003D10020B849086001E0FFF77DFF70BDC0
:1013500010B5014600200A46B44C5369A34201D19E
:10136000012300E0002373B1B34C936AA34201D17F
:10137000012300E0002333B9936A0BB9012300E095
:10138000002303B1012010BD70B505462C46A648C8
:101390000068844245D0002C43D000F04FFF204627
:1013A000FFF7D6FFD8B3201DFFF7E6FA94F82C100C
:1013B000012088409A490968084399490860E16A10
:1013C00001EB8101974A02EB81014868A0608268C5
:1013D000E260211D826851608160E16A01EB810158
:1013E000904A02EB81026261E16A01EB81018D4A60
:1013F00052F82110491CE26A02EB8202894B43F841
:1014000022108949E06A0968C96A884207D34FF007
:10141000805080490860BFF34F8FBFF36F8F00F09B
:101420001CFF70BD2DE9F04106460027344600BF81
:10143000BF21EFF3118081F31188BFF34F8FBFF30A
:101440006F8F00BF05462046FFF782FF002841D07E
:1014500071480068002838D17349E06A0968C96A90
:10146000884203D3012701206C490860201DFFF743
:1014700083FA94F82C1001208840694909680843D0
:1014800067490860E16A01EB8101664A02EB81016C
:101490004868A0608268E260211D826851608160B6
:1014A000E16A01EB81015F4A02EB81026261E16A5C
:1014B00001EB81015B4A52F82110491CE26A02EB00
:1014C0008202584B43F8221004E004F118015A48F4
:1014D000FFF72CFA00BF85F3118800BF3846BDE83E
:1014E000F08110B516E000F0A9FE5448C068C46849
:1014F000201DFFF741FA4F480068401E4D49086023
:101500004F480068401E4E49086000F0A6FE204685
:10151000FFF73EFB4A4800680028E4D110BD00BF39
:10152000FFF7DFFF3F4800680128F9D94FF08050EE
:1015300038490860BFF34F8FBFF36F8FF0E71CB5DA
:10154000404800210B468022CDE900103EA14048D2
:10155000FFF7EAFA0446012C14D100BFBF2080F344
:101560001188BFF34F8FBFF36F8F00BF4FF0FF3075
:101570003849086001202E4908600020364908607B
:1015800000F046FE354800681CBD10B500BFBF2006
:1015900080F31188BFF34F8FBFF36F8F00BF002020
:1015A0002349086000F049FE10BD2B4908687047C8
:1015B0000021294A106870471E480068704701469C
:1015C00011B91948006800E00846024602F13400EB
:1015D000704770B50446FFF717FD00F02FFE204856
:1015E000006820441E49086000F037FEFFF71FFC2A
:1015F0000546284670BD70B505460C460A48016888
:1016000018312846FFF79EF901212046FFF7AAFC72
:1016100070BD000004ED00E0500000203800002004
:101620002C000020A40000201400002058010020FD
:101630003000002024000020300100204401002060
:10164000200000204800002049444C4500000000D4
:101650001F15000844000020280000204C00002036
:101660003400002070B504460D46164645F0004093
:10167000FC49096888616068FA490968C861F949E4
:10168000826809680A62F7490968183182685160FE
:10169000F449096818318160F24909688C6221684F
:1016A000491C216001213046FFF75CFC70BD70B51C
:1016B0000346D868C168886AD1E90745A560D1E9C1
:1016C0000754656001F118044568A54201D10C6A10
:1016D000446000258D620468641E0460E24800686E
:1016E00000283DD14869D1E90245A560D1E90254FD
:1016F00065600C1D4568A54201D1CC684460002599
:101700004D610468641E046091F82C400120A040E3
:10171000D64C24682043D54C2060CC6A04EB84046A
:10172000D34D05EB8404606888608568CD600C1D2E
:1017300085686C608460CC6A04EB8404CC4D05EB56
:1017400084054D61CC6A04EB8404C94D55F82440EE
:10175000641CCD6A05EB8505C54E46F8254010E0B2
:10176000C44C6068C86185680D6201F11804856821
:101770006C608460BF4D8D622C462468641C2C60B4
:1017800000BFB84CC86A2468E46AA04204D90122A8
:101790000120B94C206000E00022104670BD70B5F9
:1017A00002460B4643F000411160D0681169D2E94E
:1017B0000154AC60D2E901456C604C68944201D19F
:1017C00094684C60002414610C68641E0C604169CC
:1017D000D0E90245A560D0E902546560041D4D685A
:1017E000A54201D1C4684C60002545610C68641EA7
:1017F0000C6090F82C400121A1409C4C24682143AE
:101800009A4C2160C46A04EB8404994D05EB84046E
:10181000616881608D68C560041D8D686C608C6036
:10182000C46A04EB8404924D05EB84054561C46AE7
:1018300004EB84048E4D55F82440641CC56A05EB06
:1018400085058B4E46F82540864CC16A2468E46ABB
:10185000A14202D90121884C216070BD10B5044617
:1018600000F0ECFC854800682060854800686060F6
:1018700000F0F3FC10BD81490968016080490968E6
:101880004160704770B506460C4600F0D7FC7C48B6
:1018900002687068131A2068401C08B9002519E016
:1018A000764930680968884206D07068904203D84B
:1018B0000125002020600DE02068984207D92068AB
:1018C000C01A20603046FFF7D6FF002502E0002056
:1018D0002060012500F0C1FC284670BD012066494A
:1018E000086070475F49086870475E490968886901
:1018F0005C490968C96AC1F105015A4A12689161D7
:1019000070472DE9F04104460F46164600F096FC5C
:1019100054480068443050F8240080B901215148EF
:1019200000684830015556B13046FFF71BFB4FF0B9
:10193000805054490860BFF34F8FBFF36F8F00F0A2
:101940008CFC00F07BFC47480068443050F8245081
:101950006DB137B1002143480068443040F824108D
:1019600005E0681E3F490968443141F82400002120
:101970003C4800684830015500F06FFC2846BDE83F
:10198000F0812DE9F04704460F4690461D46DDF8EC
:10199000209000F053FC334800684830005D022876
:1019A0001AD030490968443101EB84000168B94319
:1019B000016001212B48006848300155B9F1000F42
:1019C0000AD04846FFF7CEFA4FF080502D49086004
:1019D000BFF34F8FBFF36F8F00F03FFC00F02EFC82
:1019E0002DB120480068443050F8240028601D487C
:1019F00000684830005D022801D0002609E019493E
:101A00000968443101EB8400016821EA08010160A2
:101A100001260021134800684830015500F01DFCE4
:101A20003046BDE8F0872DE9F05F81460D46164649
:101A30001F46DDF828A04FF0010B4C4600F0FEFBDE
:101A4000BAF1000F05D004F1440050F82500CAF89F
:101A5000000004F1480010F8058002214155052FCF
:101A60003CD211E014000020500000202C00002087
:101A7000A400002030010020380000203C0000209D
:101A80002800002004ED00E0DFE807F027030D1731
:101A90001C0004F1440050F82500304304F14401D7
:101AA00041F825001BE004F1440050F82500401CDB
:101AB00004F1440141F8250011E004F1440040F82C
:101AC00025600CE0B8F1020F04D004F1440040F8A6
:101AD000256001E04FF0000B01E000E000BF00BF17
:101AE000B8F1010F4AD16069D4E902128A60D4E9E1
:101AF00002214A60211D42688A4201D1E1684160A9
:101B0000002262610168491E016094F82C100120D6
:101B10008840FE4909680843FC490860E16A01EB16
:101B20008101FB4A02EB81014868A0608268E260A3
:101B3000211D826851608160E16A01EB8101F44AF4
:101B400002EB81026261E16A01EB8101F04A52F825
:101B50002110491CE26A02EB8202ED4B43F822108D
:101B6000EC49E06A0968C96A884207D94FF0805099
:101B7000E9490860BFF34F8FBFF36F8F00F06DFB33
:101B80005846BDE8F09F2DE9F04F05460C46DDE9CB
:101B900009674FF00109294600BF4FF0BF0AEFF374
:101BA00011808AF31188BFF34F8FBFF36F8F00BF8F
:101BB000804626B101F1440050F82400306001F164
:101BC000480010F804C04FF0020A00F804A0052BEA
:101BD00029D2DFE803F027030D171C0001F14400B0
:101BE00050F82400104301F1440A4AF824001BE095
:101BF00001F1440050F82400401C01F1440A4AF865
:101C0000240011E001F1440040F824200CE0BCF174
:101C1000020F04D001F1440040F8242001E04FF00D
:101C2000000901E000E000BF00BFBCF1010F7CD162
:101C3000BA48006800285FD14869D1E902ABCAF808
:101C400008B0D1E902BACAF804B001F1040AD0F828
:101C500004B0D34503D1D1F80CA0C0F804A04FF0D4
:101C6000000BC1F814B0D0F800A0AAF1010AC0F826
:101C700000A091F82CA0012000FA0AF0DFF88CA255
:101C8000DAF800A040EA0A00DFF880A2CAF80000F3
:101C9000D1F82CA00AEB8A0ADFF874B20BEB8A0A9F
:101CA000DAF804008860D0F808B0C1F80CB001F18F
:101CB000040AD0F808B0CBF804A0C0F808A0D1F806
:101CC0002CA00AEB8A0ADFF848B20BEB8A0BC1F8AA
:101CD00014B0D1F82CA00AEB8A0ADFF834B25BF812
:101CE0002AA00AF1010AD1F82CB00BEB8B0BDFF81C
:101CF00020E24EF82BA01EE0DFF824A2DAF8040060
:101D0000C861D0F808B0C1F820B001F1180AD0F8C5
:101D100008B0CBF804A0C0F808A0DFF804B2C1F8FE
:101D200028B0DA46DAF800A000E015E00AF1010A6E
:101D3000CBF800A000BFDFF8DCA1C86ADAF800A089
:101D4000DAF82CA0504507D90FB1012038600120E6
:101D5000DFF8D0A1CAF8000000BF88F3118800BFE7
:101D60004846BDE8F08F2DE9F04103461446184679
:101D700000BFBF27EFF3118287F31188BFF34F8FA6
:101D8000BFF36F8F00BF154600F14802565C022773
:101D90005754121F52F82120521C00F1440747F8F3
:101DA0002120012E74D15D4A1268002A4CD142696B
:101DB000D0E9027CC7F808C0D0E902C7C7F804C060
:101DC000071DD2F804C0BC4501D1C76857604FF069
:101DD000000CC0F814C017687F1E176090F82C70B4
:101DE0000122BA40494F3F683A43484F3A60C76AB8
:101DF00007EB8707DFF818C10CEB87077A6882606A
:101E0000D2F808C0C0F80CC0071DD2F808C0CCF842
:101E100004709760C76A07EB8707DFF8F4C00CEB24
:101E2000870CC0F814C0C76A07EB8707DFF8E0C06B
:101E30005CF827707F1CD0F82CC00CEB8C0CDFF802
:101E4000D08048F82C7017E0354F7A68C261D2F81C
:101E500008C0C0F820C000F11807D2F808C0CCF8BC
:101E600004709760DFF8B8C0C0F828C067463F68C4
:101E70007F1CCCF8007000BF264FC26A3F68FF6A23
:101E8000BA4205D90CB1012222600122254F3A60E5
:101E900000BF85F3118800BFBDE8F0812DE9F04156
:101EA00006460C4616B91B48006800E03046074657
:101EB00000F0C4F907F14800005D022805D10021B7
:101EC00007F148000155012500E0002500F0C5F9A3
:101ED0002846BDE8F0812DE9F04106460C4617463C
:101EE00016B90C48006800E03046054600F0A6F937
:101EF00005F1440050F8248050F82400B84305F15F
:101F0000440141F8240000F0A8F90DE02C00002065
:101F1000A40000201400002004ED00E05000002088
:101F200030010020380000204046BDE8F08100006C
:101F300010B501469D4800E0006803688B42FBD362
:101F40000246436813448B4204D143684C682344DF
:101F5000436001460A464B6813440468A34211D10A
:101F6000934C03682468A34208D04B6804686468F3
:101F700023444B6003681B680B6005E08C4B1B68B7
:101F80000B6001E003680B60884200D0016010BD67
:101F900030B54FF48843874800F007042CB1C01DCA
:101FA00020F00700834C041B1B1B02467F4C226061
:101FB00000247E4D6C60D018083820F007007C4C5F
:101FC000206000247A4D2D686C60794D2D682C605E
:101FD0001146441A4C60764C24680C60764D4C686F
:101FE0002C60764D4C682C6030BD2DE9F0470546DD
:101FF0004FF00009FFF708F86D48006808B9FFF7CF
:10200000C7FF75B105F00700C0F11008C8F1FF3037
:10201000A84201D2012000E0002008B9454400E0B8
:102020000025012000EBE570002841D0002D3FD0B5
:102030006248006885423BD85C4E3046046801E047
:10204000264624686068A84202D220680028F7D19A
:102050005748006884422BD0306800F10809206896
:1020600030606068401B102807D967196068401B02
:10207000786065603846FFF75BFF50496068096823
:10208000081A4E490860084600684B4909688842AA
:1020900003D24A48006848490860606840F0004040
:1020A00060600020206046480068401C4449086089
:1020B000FEF7BDFE4846BDE8F08770B506463546DA
:1020C000E6B1083D2C466068C00FB8B12068A8B9D9
:1020D000606820F000406060FEF796FF3749606856
:1020E00009680844354908602046FFF721FF354854
:1020F0000068401C33490860FEF799FE70BD2F4808
:10210000006870472C4800687047704770B50446F7
:102110000D46002634B1701EB0FBF4F0A84201D287
:10212000012000E0002050B904FB05F0FFF75DFF3F
:10213000064626B104FB05F1304601F0A4F830460E
:1021400070BD2DE9F04104464FF000080026771ECF
:10215000FEF75AFF154805687DB10AE008F101084D
:102160006868B04200D96E686868B84200D26F688B
:102170002D680F4800688542F0D1FEF758FE666072
:10218000A760C4F80C8000F059F80C480068206083
:102190000B48006860610B480068A0610648006851
:1021A000206100F05AF8BDE8F081000054000020E2
:1021B0005C0000206C010020640000206000002012
:1021C000680000206C00002000BFBF2080F3118851
:1021D000BFF34F8FBFF36F8F00BF00BFFEE7001F3D
:1021E0004FF080730360001F21F001030360001FA4
:1021F0002D4B0360143802602038704700204FF0E8
:10220000E02108618861294848610720086170471A
:1022100010B52748006840F47F002549086008464B
:10222000006840F07F400860FFF7E8FF0020214988
:102230000860FDF799FF002010BD704700BFBF2068
:1022400080F31188BFF34F8FBFF36F8F00BF194822
:102250000068401C17490860704716480068401E17
:10226000144908600846006820B9002080F31188EE
:1022700000BF00BF704710B500BFBF2080F31188BA
:10228000BFF34F8FBFF36F8F00BFFEF7F5FC20B198
:102290004FF0805006491C39086000BF002080F3D1
:1022A000118800BF10BD0000C92100083F190100BE
:1022B00020ED00E0700000200CB50020019000909F
:1022C0006C48006840F480306A49086000BF694883
:1022D000006800F4003000900198401C01900098C4
:1022E00018B90198B0F5A06FF1D16248006800F408
:1022F000003010B10120009001E000200090009813
:10230000012843D15C48006840F010005A49086039
:102310000846006820F0030008600846006840F0A6
:1023200002000860534840685249486008464068C7
:1023300048600846406840F480604860084640684D
:1023400020F47C1048600846406840F4E81048607B
:102350000846006840F08070086000BF454800688B
:1023600000F000700028F9D04248406820F00300D7
:10237000404948600846406840F00200486000BF9D
:102380003C48406800F00C000828F9D10CBD10B59D
:10239000FFF792FF10BD10B53648006840F001000D
:1023A000344908600846406834490840314948606B
:1023B00008460068324908402E490860084600680F
:1023C00020F4802008600846406820F4FE00486041
:1023D0004FF41F008860FFF7DAFF4FF000602949D3
:1023E000086010BD10B5002100200022214B5B6861
:1023F00003F00C0121B1042906D0082928D107E0F7
:10240000214B224C236027E01F4B204C236023E00C
:10241000184B5B6803F47010164B5B6803F4803252
:10242000022303EB904022B9194B4343174C23601E
:102430000DE0104B5B6803F4003323B1144B4343AE
:10244000124C236003E0104B4343104C236003E025
:102450000D4B0E4C236000BF00BF064B5B68C3F3FF
:1024600003130C4CE15C094B1B68CB40074C236009
:1024700010BD000000100240002002400000FFF8E4
:10248000FFFFF6FE08ED00E000127A007400002065
:1024900000093D00780000200648804706480047B4
:1024A000FEE7FEE7FEE7FEE7FEE7FEE7FEE7FEE704
:1024B000FEE7FEE7972300083101000808B5012177
:1024C0000420FEF7BFF910208DF803000720ADF8B7
:1024D000000002208DF8020069463648FDF7F6FE3E
:1024E00007213448FDF79FFF08BD10B5044621467B
:1024F0003048FDF798FF10BD10B5044621462D4821
:10250000FDF793FF10BD70B504464FF4FA752046F1
:10251000FFF7F2FF2846FEF7B3FD2046FFF7E5FF81
:102520002846FEF7ADFD70BD2DE9F04106460F4689
:10253000144600254FF06408354613E004F001040A
:1025400004FA05F188B2FFF7D7FF4046FEF798FD81
:1025500004FA05F188B2FFF7C8FF4046FEF790FD88
:10256000681CC5B2BD42E9DBBDE8F081FFF7A6FFFC
:1025700007E0012203210020FFF7D6FF0320FEF72A
:102580007FFDF6E71CB50124002001210AA34022AB
:10259000CDE900100BA1AFF22B00FEF7C5FA0446FF
:1025A000012C03D10AA000F09BFE02E010A000F075
:1025B00097FE1CBD000801404C45445F4D4F4455FB
:1025C0004C4500006C65645F7461736B0000000033
:1025D000646F5F6372656174655F6C65645F74618D
:1025E000736B206973206372656174650D0A000066
:1025F000646F5F6372656174655F6C65645F74616D
:10260000736B206973206E6F7420637265617465EB
:102610000D0A000010B50446FFF710FEFFF7B2FFE9
:10262000FFF71BFE0F480068FEF7CFFA10BD1CB580
:1026300001240C48012100238A02CDE900100AA1DF
:10264000AFF22F00FEF770FA0446012C05D109A065
:1026500000F046FEFEF773FF02E00FA000F040FE20
:102660001CBD0000880000207461736B5F7374618F
:1026700072740000646F5F6372656174655F74619A
:10268000736B5F7374617274206973206372656128
:1026900074650D0A00000000646F5F637265617409
:1026A000655F7461736B5F7374617274206973200A
:1026B0006E6F74206372656174650D0A000000001E
:1026C00010B5F64C032020616061F5A0A061F749C8
:1026D000E1614FF4806121620021A1626162E162E7
:1026E000EFA02066F24961661021A16600212167F2
:1026F000E1666167EFA1E01D00F0D7FDEEA1204685
:1027000000F0D3FD2020A07110BD2DE9F047044654
:10271000894617464FF0000AE56800BFD4F81080DC
:10272000A84503D9A8EB0500461E04E0A5EB080068
:10273000401CA1680E1AA068401BB04201D9304667
:1027400001E0A068401B0646BE4201D2304600E0D0
:1027500038460646616848193246494600F07AFD17
:10276000B244B144BF1B3544A068A84200D1002543
:10277000E560002FD2D15046BDE8F0872DE9F04743
:10278000044689461546E668A068871BAF4208D90B
:10279000616888192A46494600F05CFD7019E060BE
:1027A00010E0B846616888194246494600F052FD7B
:1027B000A5EB070809EB07014246606800F04AFDF7
:1027C000C4F80C80BDE8F08738B505460C46FF20FC
:1027D0008DF80000BA48005D8DF8010002226946BC
:1027E0002846FFF792FF38BD10B501460A69CB684D
:1027F0009A4204D88C68641EE41AA01801E0D41A26
:10280000601E10BD2DE9F74F8346174600BFA34851
:10281000007808B9FFF754FF00BF0BEB4B019F484E
:10282000603000EBC106DDF804903569D6F80CA0E5
:102830004FF00008554515D9B068441BBC4201D281
:10284000204600E038460446706841192246484652
:1028500000F000FDA044A1443F1B2544B068A842FD
:1028600000D10025AAEB0504BC4201D2204600E0BD
:10287000384604464CB1706841192246484600F07B
:10288000E9FCA044A1443F1B2544B8F1000F00D04F
:1028900035614046BDE8FE8F2DE9F04104460D4606
:1028A0001646EFF311808046202080F3118800BF88
:1028B00000BF324629462046FFF7A4FF074608F02E
:1028C000FF0080F3118800BF00BF3846BDE8F081EB
:1028D0002DE9F047074688461646C14607EB4701F3
:1028E0006E48183000EBC104D4E90301884202D1DC
:1028F000A068451E0EE0D4E90301884204D2206995
:10290000E168401A451E05E02069E168401A401E52
:10291000A1684518AE420CD92069711B084420619A
:1029200003E02069A168401A20612069A1688842FB
:10293000F7D2D4E90201451A00BFB5420AD9E268CC
:10294000616888183246494600F084FCE0683044EB
:10295000E0600EE0E268616888182A46494600F0A7
:1029600079FCA9440020E060761BA068451E002E7B
:10297000E3D100BFBDE8F0872DE9F84F82468B46D2
:102980001646CDF800B00AEB4A014448183000EB77
:10299000C104D4F81090E568A94533D8A068401E5A
:1029A000471BB7420AD3616848193246009900F0C4
:1029B00051FCA819E0600120BDE8F88F4F44B742F0
:1029C0002FD3A068A0EB0508B04508D96168481965
:1029D0003246009900F03EFCA819E06010E0616802
:1029E00048194246009900F035FCA6EB0802009B0E
:1029F00003EB0801606800F02DFCA6EB0800E06026
:102A00000120D9E7A9EB0500471EB74209D3616849
:102A100048193246009900F01DFCA819E060012019
:102A2000CAE70020C8E72DE9F04707468846164662
:102A3000C24607EB47011948183000EBC109D9F825
:102A4000140020B1012811D002283BD11EE04846D5
:102A5000FFF7CAFE0546B54201D2002405E0344620
:102A6000324651464846FFF789FE2DE04846FFF7BB
:102A7000BBFE0546B54201D2284600E0304604467A
:102A8000224651464846FFF779FE1DE03246514640
:102A90004846FFF73AFE044616E000006C45002069
:102AA0005465726D696E616C000000001446002070
:102AB000144A0020525454005345474745520000E1
:102AC0008C000020002400BF00BF2046BDE8F08736
:102AD0002DE9F04104460D46164600BFFB4800783C
:102AE00008B9FFF7EDFD00BFEFF311800746202086
:102AF00080F3118800BF00BF324629462046FFF709
:102B000092FF8046F8B280F3118800BF00BF4046B4
:102B1000BDE8F08170B505460C46204600F0BEFBCE
:102B20000646324621462846FFF7D2FF70BD70B5F3
:102B300003460C4603EB4306E44D183505EBC6018E
:102B4000CD686A1C8D68954200D100220D699542BE
:102B500005D0CE684D68AC55CA60012000E0002069
:102B600070BD2DE9F0410746884600BFD748007880
:102B700008B9FFF7A5FD00BFEFF31181084620213A
:102B800081F3118800BF00BF07EB4702CF4918311E
:102B900001EBC204E1684D1CA168A94200D10025E7
:102BA0002169A94206D0E268616801F80280E56007
:102BB000012600E00026C1B281F3118800BF00BFEA
:102BC0003046BDE8F0812DE9F0410746884600BF58
:102BD000BE48007808B9FFF773FD00BFEFF311811D
:102BE0000846202181F3118800BF00BF07EB470290
:102BF000B649183101EBC204E1684D1CA168A94235
:102C000000D100256169022903D100BF2169A942D1
:102C1000FCD02169A94206D0E268616801F802800F
:102C2000E560012600E00026C1B281F3118800BFF3
:102C300000BF3046BDE8F08138B50122694600206A
:102C4000FFF72AFE0446012C02D19DF8004001E066
:102C50004FF0FF34204638BD10B500BFFFF7ECFF42
:102C60000028FBDB10BD70B500BF9848007808B99C
:102C7000FFF726FD00BF9548056FC06EA84201D042
:102C8000012400E00024204670BD10B5014601EB90
:102C900041048E48603000EBC402D3681069181AF2
:102CA00010BD10B5014601EB41048848183000EB17
:102CB000C4021369D068C01A10BD2DE9F041054661
:102CC0000E461746984600BF8048007808B9FFF7BF
:102CD000F7FC00BFEFF311810846202181F3118832
:102CE00000BF00BF002400BF04EB440277496031FD
:102CF00001EBC201496801B904E0641C73494969E8
:102D0000A142F1DC00BF71494969A14229DD04EB10
:102D100044026E49603141F8325004EB440201EB49
:102D2000C2014E6004EB44026849603101EBC2010C
:102D30008F60002204EB44036449603101EBC3015E
:102D40000A6104EB44036149603101EBC301CA60CD
:102D500004EB44025D49603101EBC201C1F814800B
:102D600001E04FF0FF34C1B281F3118800BF00BF12
:102D70002046BDE8F0812DE9F04105460E46174694
:102D8000984600BF5148007808B9FFF799FC00BF8A
:102D9000EFF311810846202181F3118800BF00BFA5
:102DA000002400BF04EB44024849183101EBC20182
:102DB000496801B904E0641C44490969A142F1DC95
:102DC00000BF42490969A14229DD04EB44023F49A1
:102DD000183141F8325004EB440201EBC2014E605D
:102DE00004EB44023949183101EBC2018F60002223
:102DF00004EB44033549183101EBC3010A6104EBCC
:102E000044033249183101EBC301CA6004EB4402A8
:102E10002E49183101EBC201C1F8148001E04FF0D6
:102E2000FF34C1B281F3118800BF00BF2046BDE866
:102E3000F0812DE9F04704460E4617469846DDF826
:102E4000209000BF2148007808B9FFF739FC00BF87
:102E50001E480069A0423BD9EFF3118108462021AA
:102E600081F3118800BF00BF0CB304EB4402174983
:102E7000183141F8326004EB440201EBC2014F60AB
:102E800004EB44021149183101EBC201C1F808807A
:102E9000002204EB44030D49183101EBC3010A6120
:102EA00004EB44030949183101EBC301CA6004EB88
:102EB00044020649183101EBC201C1F81490C1B2B5
:102EC00081F3118800BF00BF002503E06C4500209E
:102ED0004FF0FF352846BDE8F0872DE9F04704465E
:102EE0000E4617469846DDF8209000BFD648007879
:102EF00008B9FFF7E5FB00BFD3484069A04239D9C4
:102F0000EFF311810846202181F3118800BF00BF33
:102F10000CB304EB4402CC49603141F8326004EB5D
:102F2000440201EBC2014F6004EB4402C649603128
:102F300001EBC201C1F80880002204EB4403C2493E
:102F4000603101EBC3010A6104EB4403BE49603107
:102F500001EBC301CA6004EB4402BB49603101EBE1
:102F6000C201C1F81490C1B281F3118800BF00BF43
:102F7000002501E04FF0FF352846BDE8F08770B529
:102F800004460E4600BFB048007808B9FFF798FB2A
:102F900000BFAD480069A04214D9EFF31181084683
:102FA000202181F3118800BF00BF04EB4402A64931
:102FB000183141F83260C1B281F3118800BF00BFFF
:102FC000002501E04FF0FF35284670BD70B504467E
:102FD0000E4600BF9C48007808B9FFF771FB00BFA0
:102FE00099484069A04214D9EFF311810846202185
:102FF00081F3118800BF00BF04EB440292496031A5
:1030000041F83260C1B281F3118800BF00BF0025D2
:1030100001E04FF0FF35284670BD70B504460E46FE
:1030200000BF8948007808B9FFF74AFB00BF86480F
:103030000069A04215D9EFF311810846202181F3E0
:10304000118800BF00BF04EB44027F49183101EB37
:10305000C2014E61C1B281F3118800BF00BF0025DB
:1030600001E04FF0FF35284670BD70B504460E46AE
:1030700000BF7548007808B9FFF722FB00BF72480F
:103080004069A04215D9EFF311810846202181F350
:10309000118800BF00BF04EB44026B49603101EBB3
:1030A000C2014E61C1B281F3118800BF00BF00258B
:1030B00001E04FF0FF35284670BD10B5FFF700FB6B
:1030C00010BD2DE9F843044600BF5F48007808B9F9
:1030D000FFF7F6FA00BF0027FF208DF80000102C44
:1030E00031DA5A48005D8DF80100574D1835EFF37D
:1030F00011808046202080F3118800BF00BF287D0A
:1031000000F00300022807D15148047002226946EA
:103110002846FFF7FAFA0FE02846FFF765FB064658
:10312000022E07D34A480470022269462846FFF758
:1031300025FB01E04FF0FF3708F0FF0080F3118816
:1031400000BF00BF01E04FF0FF373846BDE8F8830D
:103150002DE9F0470746894600BF3B48007808B98B
:10316000FFF7AEFA00BF102F68DADFF8DC8008F155
:103170001808484600F092F80646EFF311808246A0
:10318000202080F3118800BF00BF4046FFF72CFBD2
:10319000054698F8140000F0030020B1012817D06C
:1031A000022840D12FE0301D854201D200240EE0DC
:1031B00039464046FFF708FB324649464046FFF78E
:1031C000A4FA0446224801784046FFF7FDFA2DE0B4
:1031D000042D02D24FF0FF3414E039464046FFF789
:1031E000F3FA281FB04201D9304600E0281F0246FA
:1031F00049464046FFF789FA04461548017840469B
:10320000FFF7E2FA12E039464046FFF7DDFA3246B0
:1032100049464046FFF779FA04460D480178404692
:10322000FFF7D2FA02E04FF0FF3400BF00BF0AF010
:10323000FF0080F3118800BF00BF01E04FF0FF34B2
:103240002046BDE8F08700006C4500208C0000207F
:103250009C00002040EA01039B0703D009E008C955
:10326000121F08C0042AFAD203E011F8013B00F84B
:10327000013B521EF9D27047D2B201E000F8012B97
:10328000491EFBD270470022F6E710B513460A46E6
:1032900004461946FFF7F0FF204610BD421C10F807
:1032A000011B0029FBD1801A7047034611F8012B3E
:1032B00000F8012B002AF9D118467047064C074D3B
:1032C00006E0E06840F0010394E8070098471034F6
:1032D000AC42F6D3FCF730FF30330008503300081F
:1032E000014A024900F013B8E5010008A0000020DF
:1032F00002E008C8121F08C1002AFAD170477047BF
:10330000002001E001C1121F002AFBD170472DE906
:10331000F04116460F460446002503E03946B04703
:10332000641C6D1C20780028F8D12846BDE8F08187
:103330005033000800000020A4000000F032000814
:10334000F4330008A4000020844D0000003300087E
:10335000000000000102030401020304060708093B
:103360000204060800000000000000000000000049
:10337000000000000000000000000000000000004D
:10338000000000000000000000000000000000003D
:103390000000000000000000000000000400000029
:1033A000000000000000000000000000000000001D
:1033B000000000000000000000000000000000000D
:1033C000AAAAAAAA00A24A04000000000000000065
:1033D00001020304060708090000000030313233FF
:1033E0003435363738394142434445460000000001
:0433F00000000000D9
:0400000508000131BD
:00000001FF
